:1000000004C31EC31DC31CC31BC31AC319C318C317
:1000100017C316C315C314C313C312C311C3747714
:1000200075464049433F3E45413A61625B5D3C3E17
:100030002B2A7C23004A4F595249444552333737C3
:10004000340057494C4C454D5320444156590043C8
:1000500052454154454420425900534F554E442087
:100060004F464600534F554E44204F4E0052414E8E
:10007000444F4D0056455259204841524400484192
:100080005244004E4F524D414C0045415359005689
:10009000455259204541535900524F534C49440051
:1000A000534C49444500524F544154450043524536
:1000B00044495453004F5054494F4E5300535441F8
:1000C00052540057415445524E4554004C4F434BF7
:1000D0004544004F50454E004241434B00484F4C71
:1000E0004400504C415900613A004C4556454C3A49
:1000F000003C2323232323232323232323233E00E2
:100100007C206120434F4E54494E5545202B007CA6
:100110002020202020202020202020202B007C2098
:100120004C4556454C20444F4E45202B005B2A2A17
:100130002A2A2A2A2A2A2A2A2A2A5D003C23232319
:1001400023232323232323232323233E007C202034
:10015000484F4C4420544F20515549542B007C208B
:1001600020206120504C415920202020202B007C51
:1001700020202020202020202020202020202B0094
:100180007C504C4541534520434F4E4649524D2BE0
:10019000005B2A2A2A2A2A2A2A2A2A2A2A2A2A2AB8
:1001A0005D004241434B00484F4C4400524F534C7A
:1001B000494400534C49444500524F544154450072
:1001C000613A004D4F5645533A004C4556454C3A1E
:1001D00000C0000000000000C0818100000000009D
:1001E0000003000000000000030000000000008188
:1001F00081C080000000000000030100000000003A
:100200000000000000000080C000000000000001AD
:100210000306000403FF010702052424E70000E7AA
:1002200024242424E40404E424242424E70000FFF8
:1002300000002424E40404FC0000242427202027B8
:100240002424242424242424242424242720203F58
:10025000000024242424243C00000000FF0000E7C8
:1002600024240000FC0404E424240000FF0000FF18
:1002700000000000FC0404FC000000003F202027D8
:10028000242400003C242424242400003F20203F78
:10029000000000003C24243C00003C3CFFFFFFFF2A
:1002A0003C3C3C3CFCFCFCFC3C3C3C3CFFFFFFFF82
:1002B00000003C3CFCFCFCFC00003C3C3F3F3F3F62
:1002C0003C3C3C3C3C3C3C3C3C3C3C3C3F3F3F3F62
:1002D00000003C3C3C3C3C3C00000000FFFFFFFFBA
:1002E0003C3C0000FCFCFCFC3C3C0000FFFFFFFF32
:1002F00000000000FCFCFCFC000000003F3F3F3F12
:100300003C3C00003C3C3C3C3C3C00003F3F3F3F11
:10031000000000003C3C3C3C00003C7EFFFFFFFF37
:100320007E3C3C7EFEFEFEFE7E3C3C7EFFFFFFFFF1
:100330007E003C7EFEFEFEFE7E003C7E7F7F7F7F59
:100340007E3C3C7E7E7E7E7E7E3C3C7E7F7F7F7FD1
:100350007E003C7E7E7E7E7E7E00007EFFFFFFFF75
:100360007E3C007EFEFEFEFE7E3C007EFFFFFFFF29
:100370007E00007EFEFEFEFE7E00007E7F7F7F7F91
:100380007E3C007E7E7E7E7E7E3C007E7F7F7F7F09
:100390007E00007E7E7E7E7E7E00000000000000EB
:1003A00000003333CCCC3333CCCC3232CECE3232ED
:1003B000CECE3333CCCC3333FF0073734C4C7373DA
:1003C0004C4C00FFCCCC3333CCCC00FECECE323202
:1003D000CECE3232CECE3232FE0073734C4C7373BB
:1003E0007F00007F4C4C73734C4C000000000000F9
:1003F00000000000000000000000000000000000FD
:1004000000000000000000000000010101010101E6
:10041000010100000000000000FF010101010101D5
:1004200001FF8080808080808080818181818181C6
:10043000818180808080808080FF81818181818135
:1004400081FFFF00000000000000FF010101010129
:100450000101FF000000000000FFFF010101010198
:1004600001FFFF80808080808080FF818181818189
:100470008181FF808080808080FF0000000000007C
:100480000000094D2A100894D2A0004F20100894B3
:10049000D2A00000000000000000003E7F63637FE8
:1004A0003E000000007F7F000000007B7B6B6F6FD1
:1004B0000000006B6B6B7F7F000000181C167F7FB5
:1004C0000000006F6F6B7B7B0000007F7F6C7C7C8B
:1004D00000000003737B0F070000007F7F6B7F7FAE
:1004E0000000006F6F6B7F7F0000007F7F1B1B7F12
:1004F0007F00007F7F636B7F3600007F7F636363D5
:100500000000007F7F63633E1C00007F7F6B6B6B8E
:100510000000007F7F1B1B030000003E7F636B7B9E
:100520003B00007F7F0C7F7F00000000007F7F008A
:100530000000003073637F3F0300007F7F1C7F7FDC
:100540006300007F7F6060600000007F7E0C180CFD
:100550007E7F007F7F060C7F7F00003E7F637F3EB3
:100560000000007F7F1B1F0E0000003E7F63637F43
:100570007E00007F7F137F6E000000666F6F7B330D
:1005800000000003037F7F030300007F7F607F7F05
:100590000000003F7F607F3F0000003F7F603060D1
:1005A0007F3F0077771C1C77770000070F7C7C0F5C
:1005B00007000063737B6F670000000036360000A1
:1005C0000000003E4155556B3E0024242424814206
:1005D0002418003E437575433E007EF7F38181F396
:1005E000F77E7EE7E7E781C3E77E7EEFCF8181CFAD
:1005F000EF7E7EE7C381E7E7E77E003E5B415F7FFA
:100600003E00003E4D555B7F3E0011241FBECFE5EE
:10061000D2E0DEBFCDBF10E0A0E6B0E0EAE8FCE14A
:1006200002C005900D92AE36B107D9F721E0AEE6D3
:10063000B0E001C01D92AC3AB207E1F743D523CB3D
:10064000DFCC803170F4683060F470E094E0660FC5
:10065000771F9A95E1F7645D7E4F680F711DFB016E
:10066000408308958F7787B987B187B9369A3699CD
:10067000FECF84B195B108959091C300982381E095
:1006800009F480E00895EF92FF920F931F93CF93A8
:10069000DF9380911D0181111DC0C0E0D0E08091E9
:1006A00018018C1709F445C0ED2F8E2F8D1B9091EA
:1006B00019019817D9F111E01E0FF0E0E953FF4F2F
:1006C000609124016C0F909122014081890FB9DF64
:1006D000E12FEBCFC0E0F0901901E0901801FC167B
:1006E00089F010912401D0912201DC0F6FEF610F8E
:1006F0004AE78D2FA6DF612F6E0D48E78D2FA1DF12
:10070000CF5FE9CFC0E0EC1641F2D0912401DC0FBD
:100710000091220149E76D2F8FEF800F92DF4BE7A9
:100720006D2F8F2D800F8DDFCF5FEDCFCF5FDE2F51
:10073000B6CFDF91CF911F910F91FF90EF90089569
:100740009FEB980F9A3110F4875E089590ED980F03
:100750009A30A0F030E020E0F901E75DFF4FE4912E
:100760008E1305C0F901E25EFF4F849108952F5F5B
:100770003F4F2B30310581F78DE30895805E08955A
:10078000CF92DF92FF920F931F93CF93DF93D82FD7
:10079000162FCA01C22F2AE0C22ED12CC150B60199
:1007A0001BDAF62E072F805DCBDF482F612F8C2FB1
:1007B0008D0F47DF8F2D902F009749F4CC2349F000
:1007C000C1504FEF612F8D2F8C0F3BDFF7CFC11141
:1007D000E5CFDF91CF911F910F91FF90DF90CF90E8
:1007E0000895FF920F931F93CF93DF93C82FF62E98
:1007F0008A01F80184910F5F1F4F882349F0A0DF21
:10080000D1E0DC0F482F6F2D8C2F1BDFCD2FF1CFC8
:10081000DF91CF911F910F91FF900895ECE2F1E0ED
:100820008FEF819391E0EC3AF907D9F708951F9380
:10083000CF93DF93282FFB0130911901632FC0D98B
:10084000882381F1A22FB0E0A953BF4F6C9160FDC6
:1008500029C0122F131BC12FD0E0C953DF4F78815D
:1008600072FB442740F951E04527703158F0C72FFB
:10087000C051DD0BAE015695479556954795D1E091
:100880004D274170442371F0603110F4605F6C9328
:10089000703140F4A08141E04A0F4083B0E0A2599A
:1008A000BF4F1C93492F50E04F5F5F4F3417150621
:1008B00091F18CF1A22FB0E0A953BF4F6C9161FD73
:1008C0002AC011E0120FC12FD0E0C953DF4F788149
:1008D00073FB442740F951E04527703160F0C72F82
:1008E000C051DD0BAE01C3E056954795CA95E1F7BF
:1008F000D1E04D274170442371F0603110F4605F06
:100900006C93703140F4A08141E04A0F4083B0E025
:10091000A259BF4F1C93482F50E04F5F5F4F80910B
:10092000180184171506F1F0ECF0A22FB0E0A953DE
:10093000BF4F8C9182FD16C0320FC32FD0E0C95338
:10094000DF4F488140FD0EC0803110F4805F8C93F2
:10095000403140F4A08181E08A0F8083B0E0A25949
:10096000BF4F3C93992371F1A22FB0E0A953BF4F21
:100970003C9133FD27C02150C22FD0E0C953DF4F37
:10098000488141FB882780F991E08927403148F070
:10099000642F6051770BCB019695879571E087277F
:1009A0008170882379F0303110F4305F3C9340310E
:1009B00048F4808191E0980F9083E82FF0E0E259AD
:1009C000FF4F2083DF91CF911F9108951F93CF9305
:1009D000DF931F92CDB7DEB720911701E7ECF0E06F
:1009E00090E0291761F08081803228F08052808366
:1009F0009F5F3196F6CF8031D8F38051F8CF81E0F8
:100A000089831091BF00BE016F5F7F4F812F0FDF81
:100A100099819150E92FF0E0E159FF4F992389F036
:100A200082913FEF390FA82FB0E0A953BF4F2C910F
:100A3000203128F49983BE016F5F7F4FE8CF932F59
:100A4000EDCFE12FF0E0E953FF4F8081803138F0A6
:100A5000805F80830F90DF91CF911F910895805E1A
:100A6000F8CF90E02091170130911901632F70E0C9
:100A7000FC01E21BF10969537F4FE60FF71FE0818C
:100A8000231B61F0AC01421B5109DB01A40FB51F10
:100A9000FC9149535F4FDA01FC93F2CF89539F4F8A
:100AA000DC01EC930895CF93DF9390E02091170140
:100AB00030911901632F70E0FC01E20FF11DE61B7C
:100AC000F70BE953FF4FA081231B71F0AC01420FDC
:100AD000511DFA01E61BF70BE953FF4FE081495323
:100AE0005F4FEA01E883F0CF89539F4FFC01A08359
:100AF000DF91CF9108950F931F93482F809160004D
:100B000090916100A0916200B09163008C019D0101
:100B10005DE0000F111F221F331F5A95D1F70827E0
:100B200019272A273B27D901C80161E1B695A79566
:100B3000979587956A95D1F7082719272A273B2784
:100B4000D901C80175E0880F991FAA1FBB1F7A95AC
:100B5000D1F7082719272A273B2700936000109315
:100B600061002093620030936300B90188279927C0
:100B7000242F30E050E040E043D8862F1F910F91A2
:100B80000895CF93C82F84E0B6DF90E0EC2FF0E01B
:100B9000E953FF4F981781F020812F7030E0A901B1
:100BA000440F551F73E0359527957A95E1F7242B6F
:100BB0002F7020839F5FEECFCF91089528E0C298D9
:100BC00087FDC09A87FFC098C29A880F2A95B9F707
:100BD000C298C09AB898C29AC298B89AC098089514
:100BE000C09AC29AC098C2980895909168009923BB
:100BF00001F140E02FEF30E0F901E81BF109CF01EE
:100C0000C49A20E02817190634F4F5E0FA95F1F7B4
:100C100000002F5FF7CFC49820E02817190634F49E
:100C200035E03A95F1F700002F5FF7CF4F5F64137F
:100C3000E7CF08956CE384EBD8DF66E485E0D5CF99
:100C400066E480E5D2DF6AE584EBCFCF6CE38CE825
:100C5000CCCF882379F090912101890F80932101D5
:100C60002091C50040911901420F8417BCF02195D5
:100C700020932101662379F080912301680F60930E
:100C800023018091C50020911801280F6217A4F05C
:100C900081958093230163E28CE8A7CF082E000C96
:100CA000990B332721950CF430958217930714F78D
:100CB000415040932101DECF062E000C770B99277F
:100CC00081950CF49095681779072CF721502093A3
:100CD0002301E1CF1F93CF93DF93C82FD0E0409142
:100CE000190150E0BE01641B750BCB0188539F4F67
:100CF000FC0110814150510967537F4FA3D7C9535D
:100D0000DF4F1883DF91CF911F9108951F93CF93E9
:100D1000DF9390E04091190150E0EC01C953DF4F9F
:100D2000FE01E40FF51F3197108141505109BE01BA
:100D300088539F4F87D71883DF91CF911F910895D4
:100D4000CF93C82F84E0D7DE813091F030F082302D
:100D5000B1F08330F9F0CF9108956091190120919D
:100D60001701261B8C2F2CD7822F890FCF9179CE7C
:100D7000609119018C2F24D7892FCF9194CE609147
:100D800019012FEF260F2C0F8C2F1AD7822F891BBA
:100D9000CF91A0CF609119018C2F12D78C2F891B76
:100DA000CF91B4CFBF92CF92DF92EF92FF920F9389
:100DB0001F93CF93DF9300D000D0CDB7DEB7109252
:100DC000250110921F0110921E0110911C01153077
:100DD00009F44AC060911D0170E090E080E022E3D8
:100DE00030E040E050E0D3D66B017C01612F70E031
:100DF00090E080E024EF31E040E050E0C8D6DC0134
:100E0000CB018C0D9D1DAE1DBF1D20912001820FB9
:100E1000911DA11DB11D0097A105B10521F481E02F
:100E200090E0A0E0B0E08093600090936100A09318
:100E30006200B093630089E18093C600123009F428
:100E4000DBC020F5112361F186E0113051F186E01D
:100E500052DE8B5F8093190184E04DDE8B5F8093BF
:100E600018011092C60021C0611571058105910518
:100E700021F461E070E080E090E0609360007093A6
:100E800061008093620090936300D5CF133009F422
:100E9000B5C01430E1F68AE08093190188E003C000
:100EA00085E080931901809318019091C500990FF6
:100EB00080911901891B8093190160911801691BA8
:100EC000609318014AD680931701482F50E06FE0D5
:100ED00070E087EC90E0C7D6CC24C39400E0E12C0E
:100EE000D0901701F09019012F2D30E0409118019A
:100EF000DC1409F4A5C0802F6F2D62D6B82ED92E30
:100F0000892F90E00196821793070CF079C0E02FAB
:100F1000F0E0E953FF4F81818F3009F071C081E02B
:100F2000800F898311E0DD2089F0E02FF0E0EA53A3
:100F3000FF4F80818F3051F4E1E0F0E0EC0FFD1FB6
:100F4000E10FF11D8FEF800F80831F5FBB2099F0B1
:100F5000E02FF0E0E21BF30BE953FF4F80818F306D
:100F600051F4E1E0F0E0EC0FFD1FE10FF11D802FE7
:100F70008F1980831F5F8B2D90E00196481719060B
:100F800009F00CF43FC029533F4FF901E00FF11D68
:100F900080818F30B9F5E1E0F0E0EC0FFD1FE10F4B
:100FA000F11D802F8F0D80831F5F812FA4DD21E035
:100FB00030E02C0F3D1F280F311DF9013081832FA8
:100FC0006F2DFED5E02FF0E0A32FB0E0E953FF4FE7
:100FD000A953BF4FD91600F58C91877F8C938081E0
:100FE0008D7F8083113031F0EE2DF0E0E259FF4F1C
:100FF0000083E394C3940EC087E053CF88E051CFC1
:1010000010E091CF1111D1CFEA94EE2DF0E0E2592A
:10101000FF4F3081032F64CF2C919D1528F42D7F35
:101020002C938081877FDDCF8B1528F42B7F2C9329
:1010300080818E7FD6CF2E7F2C9380818B7FD1CFE6
:101040008AE090E0821B930B95958795809322010F
:1010500050E088E090E0841B950B959587958093F0
:10106000240135952795559547958F2D642F75D576
:10107000820F8093BF00209321014093230110E051
:101080001D1590F480911D01882351F0813021F0CD
:1010900082E031DD811104C0812F52DE1E5FF0CF6E
:1010A000812F6FDD1F5FECCF0F900F900F900F908F
:1010B000DF91CF911F910F91FF90EF90DF90CF9034
:1010C000BF9084CC83E08ABD83BF789480E48CBDDC
:1010D0008FEF8DBD87EC80BF87E886B980E187BB45
:1010E00018BABA9AB89AC29AC09A8FE39CE9019743
:1010F000F1F700C0000074DD88E760DD80E05EDDB0
:101100008EEA5CDD85ED5ADD80E858DD88EA56DD43
:101110008FE354DD83ED52DD80E050DD80E44EDD71
:101120008DE84CDD84E14ADD81EA48DD88EC46DD6E
:101130008AED44DD82E142DD81E840DD8FEC3EDD79
:1011400089ED3CDD81EF3ADD8BED38DD80E436DD85
:1011500080E234DD80E032DD8FEA30DDC098C29A73
:10116000C09AEFE3FCE93197F1F700C00000D0E04E
:10117000C0E0CE01D8D48150893148F42196C231E3
:10118000D105B9F782E190E0CED4823068F0D0E0AA
:10119000C0E061E0CE01CFD42196C231D105C9F7BC
:1011A00061E082E190E0C7D482E190E0BCD481703C
:1011B000809368001092270110921B0110921A016F
:1011C00010921D0182E080931C0181E08093200138
:1011D0001092C50010922601109225016624639496
:1011E000FF24F39463E0562E8091690090916A0089
:1011F000A0916B00B0916C000196A11DB11D809370
:10120000690090936A00A0936B00B0936C001092F9
:10121000C30083E827DA853F914034F083E822DA7F
:10122000C1E08E3E92400CF0C0E083E81BDA8E3EB7
:10123000924034F083E816DA863B93400CF4C260A7
:1012400080E810DA8E3E924034F080E80BDA863B7C
:1012500093400CF4C46080E805DA853F914034F097
:1012600080E800DA8E3E92400CF4C8608091C200A3
:1012700080958C238093C300C093C2009091C100DD
:10128000B1994CC09D3208F450C09091C1009D327C
:1012900048F09091C000911105C080628093C30016
:1012A000F092C0008091C4008F5F863008F049C082
:1012B0008093C40080912701882309F44AC08130BB
:1012C00009F475C180912501882309F4F5C180E1F5
:1012D000D3D9882309F46AC0B3DCC0911C01C5309E
:1012E00009F4AFC11091200180911D0166E035D451
:1012F000C80FD0E0CE0117D4181730F0193120F400
:1013000061E0610FCE0117D4809120019091C60059
:10131000891708F4C5C1F092270148C0911109C08E
:101320001092C1001092C000BDCF9F5F9093C1008A
:10133000ACCF9091C0009111F3CF80618093C30036
:10134000EFCF1092C40080912A01862580932A0154
:10135000B1CF81E091D9882351F080911B01813078
:1013600009F4A0C008F494C0823009F4A4C082E05B
:1013700083D9882351F080911B01813009F4AEC0DC
:1013800008F4A2C0823009F4B2C080E275D9882383
:1013900009F4B6C090911B01992309F4B1C081E012
:1013A000923009F080E080931B0144DC809127019A
:1013B000882309F433C2813009F433C3C091260174
:1013C000C11105C080912501882309F468C31092DA
:1013D0002B018FEF80932901809328011FDA4AECBB
:1013E00051E060E08AE0FDD94091200150E022E028
:1013F00061E08EE0C5D943EC51E062E08AE0F1D9CA
:1014000040911E0150911F0125E063E08BE0B8D9A7
:1014100040EC51E064E08AE0E4D980911D0149EBA1
:1014200051E0882331F043EB51E0813011F04CEA78
:1014300051E065E08AE0D5D947EA51E066E08AE00C
:10144000D0D942EA51E067E08AE0CBD91CD9CC235D
:1014500009F436C341E951E061E080E0C2D940E8D7
:1014600051E062E080E0BDD94FE651E063E080E00A
:10147000B8D94EE551E064E080E0B3D94DE451E0E5
:1014800065E080E0AED94CE351E066E080E0EDC17C
:1014900080911A01882309F46ACF815080931A0140
:1014A000D5DB65CF80911D01882309F460CF815081
:1014B00080931D01F5CF80911C01882309F457CF3B
:1014C000815080931C01ECCF80911A01823008F08A
:1014D0005CCF8F5F80931A01B9DB57CF80911D01DC
:1014E000823008F052CF8F5F80931D01F5CF80913D
:1014F0001C01853008F049CF8F5F80931C01ECCF31
:1015000080E1BAD8882309F451CF80911B019091D2
:101510001A01913031F09230C9F08230F8F48F5FC7
:1015200018C0833021F050921B018ADB3FCF80919D
:101530006800882339F01092680060E082E190E052
:10154000FAD2F3CF9093680061E0F8CF843021F0B5
:1015500084E080931B01E9CF80E0FBCF90911C01D8
:10156000C0911D0181E0953031F08C2F66E0F5D2FD
:10157000890F90E0D8D28093200181E0C11101C091
:1015800080E08093C5006091690070916A0080914D
:101590006B0090916C006093640070936500809381
:1015A000660090936700FEDBF0922701BECF80E2D9
:1015B00063D8882331F03EDB10921B011092270183
:1015C000F5CE80E159D88823C1F080911D0166E0F5
:1015D000C4D290911C01890F90E0A5D29091200176
:1015E0009150981738F42CDB1092260182E08093FA
:1015F0002701DCCE68E785E0F8DA84E03DD888236F
:10160000B1F080911C01853071F520DB609169009B
:1016100070916A0080916B0090916C0060936400FF
:10162000709365008093660090936700BBDB88E051
:1016300023D8882309F4BACE80911C01853031F576
:1016400005DB6091690070916A0080916B00909158
:101650006C006093640070936500809366009093C3
:101660006700A0DBA3CE80912001823000F3EEDA88
:1016700080912001815080932001609164007091DD
:1016800065008091660090916700D0CF9091200115
:101690008091C600981708F089CED8DA8091200191
:1016A0008F5F80932001609164007091650080914C
:1016B000660090916700D5CFC0912601CC23D1F070
:1016C00080E1DAD7882321F0BBDA109226016ECEB2
:1016D00080E2D2D7882309F469CEACDA10922601D1
:1016E0006091640070916500809166009091670040
:1016F00059DB11CE81E0C0D7882319F06FEF80E06D
:10170000A8DA82E0B9D7882319F061E080E0A1DA95
:1017100084E0B2D7882319F060E08FEF9ADA88E08E
:10172000ABD7882319F060E081E093DA80E1A4D799
:10173000882309F46AC0E0912101E7FD05C091E02A
:1017400080911901E8170CF090E08091230187FD4A
:10175000E4C12091180182170CF4D6C1992361F0DD
:10176000609119018FEF820FF8D18E0F7AD91DC0C9
:1017700090911D01913021F468E785E036DA16CEAC
:1017800060911901EAD1E80FF0E0E953FF4F808141
:101790008F7090E09C01220F331F53E09595879541
:1017A0005A95E1F7822B8F70808380911E01909172
:1017B0001F01019690931F0180931E016DE284EB3F
:1017C00014DA04D990911701E7ECF0E080E0981763
:1017D00051F02191203140F08F5FF9CF8F5FBDD163
:1017E000815078DAE2CFC1E0C0932501CC2309F41F
:1017F000DDCD6CE385E0F9D96CE380E5F6D96CE3E7
:101800008CE8F3D96CE884EBB9CF80E235D7882334
:1018100009F4CCCD0FDAF0922601C8CD10922B013D
:101820008FEF8093290180932801F8D743EC50E093
:1018300061E084E0D6D780911B01813009F4ACC00F
:10184000B0F0823009F4BAC0833009F4DBC04FE451
:1018500050E064E083E0C5D742E450E065E082E018
:10186000C0D745E350E066E082E0BBD715C04DEB42
:1018700050E064E085E0B5D745EB50E065E085E0F9
:10188000B0D74DEA50E066E085E0ABD760911A0131
:101890006C5F46E784E0D5D62CE2C22E21E0D22E42
:1018A000E12C9ED988E78AD980E088D98E2D806B7B
:1018B00085D980E083D980E181D9C098C29AC09A45
:1018C0008FD988E77BD980E479D95601712CF5014D
:1018D00001915F010F3F09F411C110E093E0000F87
:1018E000111F9A95E1F7065E1D4F80912B01882309
:1018F00009F407C180912A01811103C18091290156
:10190000E62DE81BE70D80912801F62DF81B8F2F9F
:101910008E0DE33008F0F5C0833008F0F2C090E09F
:1019200063E070E023D1E80FF92FF11DEF5EFD4F6A
:10193000C491CF3F09F4E5C0D0E083E0CC0FDD1FB8
:101940008A95E1F7CF52DE4F912C812C80E0011572
:10195000110521F0F801E80DF91D8491209729F077
:10196000FE01E80DF91DE4918E2B28D92FEF821A84
:10197000920A88E08816910449F7739490E17912ED
:10198000A6CFC098C29AC09AE0E1CE0ED11CE394D3
:10199000F8E0EF1286CF28CC46EA50E064E085E01C
:1019A00020D740EA50E065E085E01BD749E950E0E8
:1019B00066E085E016D760911D016ACF4FE850E0E0
:1019C00062E083E00ED74AE850E063E083E009D7A5
:1019D00043E850E064E083E004D74EE750E065E080
:1019E00083E0FFD644E750E066E083E0FAD64DE6B8
:1019F00050E067E083E0F5D660911C016E5F46E73A
:101A000082E049CF8091680044E650E0811102C035
:101A10004AE550E064E084E0E4D686E780936F0115
:101A20003BCF10922B018FEF8093290180932801E7
:101A3000F5D64AEE50E060E08AE0D3D6C0912001AE
:101A40004C2F50E022E061E08EE09AD680911D019B
:101A500066E083D090911C01890F90E064D0C15062
:101A600043ED50E0C81710F04CEC50E062E08AE023
:101A7000B8D647EE50E064E08AE0B3D642EE50E0DC
:101A800065E08AE0AED64DED50E066E08AE0A9D68A
:101A900048ED50E067E08AE0A4D6F5D5FDCE809110
:101AA000240190912301890F90912201209121011D
:101AB000920F9093290180932801F0922B018ECCF4
:101AC00080912501882309F4E7CE4DE251E062E0E0
:101AD00081E087D64EE151E063E081E082D64FE0BD
:101AE00051E064E081E07DD640E051E065E081E0D6
:101AF00078D641EF50E066E081E0B7CE10E000E03C
:101B0000F4CED0E0C0E020CF911132CE6091190127
:101B1000E7FF64CE22D0FAD848CE992309F42CCE20
:101B20008E2FC1D742CEE199FECF9FBB8EBBE09AEC
:101B300099278DB30895262FE199FECF9FBB8EBBC9
:101B4000E09A01970DB2021639F01CBA2DBB0FB600
:101B5000F894E29AE19A0FBE0895002480FD060EE3
:101B6000660F11F08695D1F7802D08950024552732
:101B700004C0080E591F880F991F009729F0769509
:101B80006795B8F37105B9F7802D952F0895EE2765
:101B9000FF27AA27BB2708C0A20FB31FE41FF51F0A
:101BA000220F331F441F551F96958795779567958C
:101BB00098F37040A9F7009799F7BD01CF010895F8
:101BC000991B79E004C0991F961708F0961B881F8F
:101BD0007A95C9F780950895AA1BBB1B51E107C0F0
:101BE000AA1FBB1FA617B70710F0A61BB70B881FAD
:101BF000991F5A95A9F780959095BC01CD0108953C
:101C0000A1E21A2EAA1BBB1BFD010DC0AA1FBB1F00
:101C1000EE1FFF1FA217B307E407F50720F0A21B72
:101C2000B30BE40BF50B661F771F881F991F1A94DF
:101C300069F760957095809590959B01AC01BD0109
:101C4000CF0108956817790768F4FB01DC01E40F00
:101C5000F51FA40FB51F02C002900E9241505040D4
:101C6000D8F7089507C0DC0101C06D934150504082
:101C7000E0F70895FB01DC0102C001900D92415094
:0A1C80005040D8F70895F894FFCF04
:0E1C8A00010000000100000001010000000048
:00000001FF
